{
  "_format": "hh-sol-artifact-1",
  "contractName": "MultiSignatureWallet",
  "sourceName": "contracts/wallet.sol",
  "abi": [
    {
      "inputs": [
        {
          "internalType": "address[]",
          "name": "_owners",
          "type": "address[]"
        },
        {
          "internalType": "uint256",
          "name": "_numOfConfirmationsRequired",
          "type": "uint256"
        }
      ],
      "stateMutability": "nonpayable",
      "type": "constructor"
    },
    {
      "anonymous": false,
      "inputs": [
        {
          "indexed": true,
          "internalType": "address",
          "name": "owner",
          "type": "address"
        },
        {
          "indexed": true,
          "internalType": "uint256",
          "name": "transactionId",
          "type": "uint256"
        }
      ],
      "name": "ConfirmationTransaction",
      "type": "event"
    },
    {
      "anonymous": false,
      "inputs": [
        {
          "indexed": false,
          "internalType": "address",
          "name": "sender",
          "type": "address"
        },
        {
          "indexed": false,
          "internalType": "uint256",
          "name": "amount",
          "type": "uint256"
        },
        {
          "indexed": false,
          "internalType": "uint256",
          "name": "balance",
          "type": "uint256"
        }
      ],
      "name": "Deposit",
      "type": "event"
    },
    {
      "anonymous": false,
      "inputs": [
        {
          "indexed": true,
          "internalType": "address",
          "name": "owner",
          "type": "address"
        },
        {
          "indexed": true,
          "internalType": "uint256",
          "name": "transactionId",
          "type": "uint256"
        }
      ],
      "name": "ExecuteTransaction",
      "type": "event"
    },
    {
      "anonymous": false,
      "inputs": [
        {
          "indexed": true,
          "internalType": "address",
          "name": "owner",
          "type": "address"
        },
        {
          "indexed": true,
          "internalType": "uint256",
          "name": "transactionId",
          "type": "uint256"
        }
      ],
      "name": "RevokeConfirmation",
      "type": "event"
    },
    {
      "anonymous": false,
      "inputs": [
        {
          "indexed": true,
          "internalType": "address",
          "name": "owner",
          "type": "address"
        },
        {
          "indexed": true,
          "internalType": "uint256",
          "name": "transactionId",
          "type": "uint256"
        },
        {
          "indexed": true,
          "internalType": "address",
          "name": "transactionTo",
          "type": "address"
        },
        {
          "indexed": false,
          "internalType": "uint256",
          "name": "value",
          "type": "uint256"
        },
        {
          "indexed": false,
          "internalType": "bytes",
          "name": "data",
          "type": "bytes"
        }
      ],
      "name": "SubmitTransaction",
      "type": "event"
    },
    {
      "inputs": [
        {
          "internalType": "uint256",
          "name": "_txIndex",
          "type": "uint256"
        }
      ],
      "name": "confirmationTransaction",
      "outputs": [],
      "stateMutability": "nonpayable",
      "type": "function"
    },
    {
      "inputs": [
        {
          "internalType": "uint256",
          "name": "_txIndex",
          "type": "uint256"
        }
      ],
      "name": "executeTransaction",
      "outputs": [],
      "stateMutability": "nonpayable",
      "type": "function"
    },
    {
      "inputs": [],
      "name": "getOwners",
      "outputs": [
        {
          "internalType": "address[]",
          "name": "",
          "type": "address[]"
        }
      ],
      "stateMutability": "view",
      "type": "function"
    },
    {
      "inputs": [
        {
          "internalType": "uint256",
          "name": "_txIndex",
          "type": "uint256"
        }
      ],
      "name": "getTransaction",
      "outputs": [
        {
          "internalType": "address",
          "name": "to",
          "type": "address"
        },
        {
          "internalType": "uint256",
          "name": "value",
          "type": "uint256"
        },
        {
          "internalType": "bytes",
          "name": "data",
          "type": "bytes"
        },
        {
          "internalType": "bool",
          "name": "executed",
          "type": "bool"
        },
        {
          "internalType": "uint256",
          "name": "numConfirmations",
          "type": "uint256"
        }
      ],
      "stateMutability": "view",
      "type": "function"
    },
    {
      "inputs": [],
      "name": "getTransactionsCount",
      "outputs": [
        {
          "internalType": "uint256",
          "name": "",
          "type": "uint256"
        }
      ],
      "stateMutability": "view",
      "type": "function"
    },
    {
      "inputs": [
        {
          "internalType": "uint256",
          "name": "",
          "type": "uint256"
        },
        {
          "internalType": "address",
          "name": "",
          "type": "address"
        }
      ],
      "name": "inConfirmed",
      "outputs": [
        {
          "internalType": "bool",
          "name": "",
          "type": "bool"
        }
      ],
      "stateMutability": "view",
      "type": "function"
    },
    {
      "inputs": [
        {
          "internalType": "address",
          "name": "",
          "type": "address"
        }
      ],
      "name": "isOwner",
      "outputs": [
        {
          "internalType": "bool",
          "name": "",
          "type": "bool"
        }
      ],
      "stateMutability": "view",
      "type": "function"
    },
    {
      "inputs": [],
      "name": "numConfirmationRequired",
      "outputs": [
        {
          "internalType": "uint256",
          "name": "",
          "type": "uint256"
        }
      ],
      "stateMutability": "view",
      "type": "function"
    },
    {
      "inputs": [
        {
          "internalType": "uint256",
          "name": "_txIndex",
          "type": "uint256"
        }
      ],
      "name": "removeConfirmation",
      "outputs": [],
      "stateMutability": "nonpayable",
      "type": "function"
    },
    {
      "inputs": [
        {
          "internalType": "address",
          "name": "_to",
          "type": "address"
        },
        {
          "internalType": "uint256",
          "name": "_value",
          "type": "uint256"
        },
        {
          "internalType": "bytes",
          "name": "_data",
          "type": "bytes"
        }
      ],
      "name": "submitTransaction",
      "outputs": [],
      "stateMutability": "nonpayable",
      "type": "function"
    },
    {
      "stateMutability": "payable",
      "type": "receive"
    }
  ],
  "bytecode": "0x60806040523480156200001157600080fd5b50604051620024a8380380620024a883398181016040528101906200003791906200050d565b60008251116200007e576040517f08c379a00000000000000000000000000000000000000000000000000000000081526004016200007590620005d4565b60405180910390fd5b60008111801562000090575081518111155b620000d2576040517f08c379a0000000000000000000000000000000000000000000000000000000008152600401620000c9906200066c565b60405180910390fd5b60005b8251811015620002d4576000838281518110620000f757620000f66200068e565b5b60200260200101519050600073ffffffffffffffffffffffffffffffffffffffff168173ffffffffffffffffffffffffffffffffffffffff160362000173576040517f08c379a00000000000000000000000000000000000000000000000000000000081526004016200016a906200070d565b60405180910390fd5b600160008273ffffffffffffffffffffffffffffffffffffffff1673ffffffffffffffffffffffffffffffffffffffff16815260200190815260200160002060009054906101000a900460ff161562000203576040517f08c379a0000000000000000000000000000000000000000000000000000000008152600401620001fa906200077f565b60405180910390fd5b60018060008373ffffffffffffffffffffffffffffffffffffffff1673ffffffffffffffffffffffffffffffffffffffff16815260200190815260200160002060006101000a81548160ff0219169083151502179055506000819080600181540180825580915050600190039060005260206000200160009091909190916101000a81548173ffffffffffffffffffffffffffffffffffffffff021916908373ffffffffffffffffffffffffffffffffffffffff160217905550508080620002cb90620007d0565b915050620000d5565b508060028190555050506200081d565b6000604051905090565b600080fd5b600080fd5b600080fd5b6000601f19601f8301169050919050565b7f4e487b7100000000000000000000000000000000000000000000000000000000600052604160045260246000fd5b6200034882620002fd565b810181811067ffffffffffffffff821117156200036a57620003696200030e565b5b80604052505050565b60006200037f620002e4565b90506200038d82826200033d565b919050565b600067ffffffffffffffff821115620003b057620003af6200030e565b5b602082029050602081019050919050565b600080fd5b600073ffffffffffffffffffffffffffffffffffffffff82169050919050565b6000620003f382620003c6565b9050919050565b6200040581620003e6565b81146200041157600080fd5b50565b6000815190506200042581620003fa565b92915050565b6000620004426200043c8462000392565b62000373565b90508083825260208201905060208402830185811115620004685762000467620003c1565b5b835b8181101562000495578062000480888262000414565b8452602084019350506020810190506200046a565b5050509392505050565b600082601f830112620004b757620004b6620002f8565b5b8151620004c98482602086016200042b565b91505092915050565b6000819050919050565b620004e781620004d2565b8114620004f357600080fd5b50565b6000815190506200050781620004dc565b92915050565b60008060408385031215620005275762000526620002ee565b5b600083015167ffffffffffffffff811115620005485762000547620002f3565b5b62000556858286016200049f565b92505060206200056985828601620004f6565b9150509250929050565b600082825260208201905092915050565b7f6f776e6572732072657175697265640000000000000000000000000000000000600082015250565b6000620005bc600f8362000573565b9150620005c98262000584565b602082019050919050565b60006020820190508181036000830152620005ef81620005ad565b9050919050565b7f496e76616c6964206e756d626572206f6620726571756972656420636f6e666960008201527f726d6174696f6e73000000000000000000000000000000000000000000000000602082015250565b60006200065460288362000573565b91506200066182620005f6565b604082019050919050565b60006020820190508181036000830152620006878162000645565b9050919050565b7f4e487b7100000000000000000000000000000000000000000000000000000000600052603260045260246000fd5b7f496e76616c6964206f776e657200000000000000000000000000000000000000600082015250565b6000620006f5600d8362000573565b91506200070282620006bd565b602082019050919050565b600060208201905081810360008301526200072881620006e6565b9050919050565b7f4f776e6572206e6f7420756e6971756500000000000000000000000000000000600082015250565b60006200076760108362000573565b915062000774826200072f565b602082019050919050565b600060208201905081810360008301526200079a8162000758565b9050919050565b7f4e487b7100000000000000000000000000000000000000000000000000000000600052601160045260246000fd5b6000620007dd82620004d2565b91507fffffffffffffffffffffffffffffffffffffffffffffffffffffffffffffffff8203620008125762000811620007a1565b5b600182019050919050565b611c7b806200082d6000396000f3fe6080604052600436106100955760003560e01c80639b6a34d3116100595780639b6a34d3146101eb578063a0e67e2b14610216578063c642747414610241578063e3782c141461026a578063ee22610b14610293576100d7565b80632f54bf6e146100dc57806333ea3dc8146101195780633d454d561461015a578063578cb8f91461019757806361b18b9f146101c2576100d7565b366100d7577f90890809c654f11d6e72a28fa60149770a0d11ec6c92319d6ceb2bb0a4ea1a153334476040516100cd93929190610fcb565b60405180910390a1005b600080fd5b3480156100e857600080fd5b5061010360048036038101906100fe9190611042565b6102bc565b604051610110919061108a565b60405180910390f35b34801561012557600080fd5b50610140600480360381019061013b91906110d1565b6102dc565b60405161015195949392919061118e565b60405180910390f35b34801561016657600080fd5b50610181600480360381019061017c91906111e8565b6103ef565b60405161018e919061108a565b60405180910390f35b3480156101a357600080fd5b506101ac61041e565b6040516101b99190611228565b60405180910390f35b3480156101ce57600080fd5b506101e960048036038101906101e491906110d1565b61042b565b005b3480156101f757600080fd5b50610200610708565b60405161020d9190611228565b60405180910390f35b34801561022257600080fd5b5061022b61070e565b6040516102389190611301565b60405180910390f35b34801561024d57600080fd5b5061026860048036038101906102639190611458565b61079c565b005b34801561027657600080fd5b50610291600480360381019061028c91906110d1565b61099f565b005b34801561029f57600080fd5b506102ba60048036038101906102b591906110d1565b610c79565b005b60016020528060005260406000206000915054906101000a900460ff1681565b60008060606000806000600487815481106102fa576102f96114c7565b5b906000526020600020906005020190508060000160009054906101000a900473ffffffffffffffffffffffffffffffffffffffff168160010154826002018360030160009054906101000a900460ff16846004015482805461035b90611525565b80601f016020809104026020016040519081016040528092919081815260200182805461038790611525565b80156103d45780601f106103a9576101008083540402835291602001916103d4565b820191906000526020600020905b8154815290600101906020018083116103b757829003601f168201915b50505050509250955095509550955095505091939590929450565b60036020528160005260406000206020528060005260406000206000915091509054906101000a900460ff1681565b6000600480549050905090565b600160003373ffffffffffffffffffffffffffffffffffffffff1673ffffffffffffffffffffffffffffffffffffffff16815260200190815260200160002060009054906101000a900460ff166104b7576040517f08c379a00000000000000000000000000000000000000000000000000000000081526004016104ae906115b3565b60405180910390fd5b8060048054905081106104ff576040517f08c379a00000000000000000000000000000000000000000000000000000000081526004016104f69061161f565b60405180910390fd5b8160048181548110610514576105136114c7565b5b906000526020600020906005020160030160009054906101000a900460ff1615610573576040517f08c379a000000000000000000000000000000000000000000000000000000000815260040161056a9061168b565b60405180910390fd5b826003600082815260200190815260200160002060003373ffffffffffffffffffffffffffffffffffffffff1673ffffffffffffffffffffffffffffffffffffffff16815260200190815260200160002060009054906101000a900460ff1615610612576040517f08c379a0000000000000000000000000000000000000000000000000000000008152600401610609906116f7565b60405180910390fd5b600060048581548110610628576106276114c7565b5b90600052602060002090600502019050600181600401600082825461064d9190611746565b9250508190555060016003600087815260200190815260200160002060003373ffffffffffffffffffffffffffffffffffffffff1673ffffffffffffffffffffffffffffffffffffffff16815260200190815260200160002060006101000a81548160ff021916908315150217905550843373ffffffffffffffffffffffffffffffffffffffff167f84127bf8c5748be76c6a9014354ddf1d1620ac83cd2f934a2ea0a7ec38ac5f4760405160405180910390a35050505050565b60025481565b6060600080548060200260200160405190810160405280929190818152602001828054801561079257602002820191906000526020600020905b8160009054906101000a900473ffffffffffffffffffffffffffffffffffffffff1673ffffffffffffffffffffffffffffffffffffffff1681526020019060010190808311610748575b5050505050905090565b600160003373ffffffffffffffffffffffffffffffffffffffff1673ffffffffffffffffffffffffffffffffffffffff16815260200190815260200160002060009054906101000a900460ff16610828576040517f08c379a000000000000000000000000000000000000000000000000000000000815260040161081f906115b3565b60405180910390fd5b6000600480549050905060046040518060a001604052808673ffffffffffffffffffffffffffffffffffffffff1681526020018581526020018481526020016000151581526020016000815250908060018154018082558091505060019003906000526020600020906005020160009091909190915060008201518160000160006101000a81548173ffffffffffffffffffffffffffffffffffffffff021916908373ffffffffffffffffffffffffffffffffffffffff1602179055506020820151816001015560408201518160020190816109049190611926565b5060608201518160030160006101000a81548160ff0219169083151502179055506080820151816004015550508373ffffffffffffffffffffffffffffffffffffffff16813373ffffffffffffffffffffffffffffffffffffffff167fd5a05bf70715ad82a09a756320284a1b54c9ff74cd0f8cce6219e79b563fe59d86866040516109919291906119f8565b60405180910390a450505050565b600160003373ffffffffffffffffffffffffffffffffffffffff1673ffffffffffffffffffffffffffffffffffffffff16815260200190815260200160002060009054906101000a900460ff16610a2b576040517f08c379a0000000000000000000000000000000000000000000000000000000008152600401610a22906115b3565b60405180910390fd5b806004805490508110610a73576040517f08c379a0000000000000000000000000000000000000000000000000000000008152600401610a6a9061161f565b60405180910390fd5b8160048181548110610a8857610a876114c7565b5b906000526020600020906005020160030160009054906101000a900460ff1615610ae7576040517f08c379a0000000000000000000000000000000000000000000000000000000008152600401610ade9061168b565b60405180910390fd5b600060048481548110610afd57610afc6114c7565b5b906000526020600020906005020190506003600085815260200190815260200160002060003373ffffffffffffffffffffffffffffffffffffffff1673ffffffffffffffffffffffffffffffffffffffff16815260200190815260200160002060009054906101000a900460ff16610baa576040517f08c379a0000000000000000000000000000000000000000000000000000000008152600401610ba190611a74565b60405180910390fd5b6001816004016000828254610bbf9190611a94565b9250508190555060006003600086815260200190815260200160002060003373ffffffffffffffffffffffffffffffffffffffff1673ffffffffffffffffffffffffffffffffffffffff16815260200190815260200160002060006101000a81548160ff021916908315150217905550833373ffffffffffffffffffffffffffffffffffffffff167ff0dca620e2e81f7841d07bcc105e1704fb01475b278a9d4c236e1c62945edd5560405160405180910390a350505050565b600160003373ffffffffffffffffffffffffffffffffffffffff1673ffffffffffffffffffffffffffffffffffffffff16815260200190815260200160002060009054906101000a900460ff16610d05576040517f08c379a0000000000000000000000000000000000000000000000000000000008152600401610cfc906115b3565b60405180910390fd5b806004805490508110610d4d576040517f08c379a0000000000000000000000000000000000000000000000000000000008152600401610d449061161f565b60405180910390fd5b8160048181548110610d6257610d616114c7565b5b906000526020600020906005020160030160009054906101000a900460ff1615610dc1576040517f08c379a0000000000000000000000000000000000000000000000000000000008152600401610db89061168b565b60405180910390fd5b600060048481548110610dd757610dd66114c7565b5b9060005260206000209060050201905060025481600401541015610e30576040517f08c379a0000000000000000000000000000000000000000000000000000000008152600401610e2790611b14565b60405180910390fd5b60018160030160006101000a81548160ff02191690831515021790555060008160000160009054906101000a900473ffffffffffffffffffffffffffffffffffffffff1673ffffffffffffffffffffffffffffffffffffffff16826001015483600201604051610ea09190611bc2565b60006040518083038185875af1925050503d8060008114610edd576040519150601f19603f3d011682016040523d82523d6000602084013e610ee2565b606091505b5050905080610f26576040517f08c379a0000000000000000000000000000000000000000000000000000000008152600401610f1d90611c25565b60405180910390fd5b843373ffffffffffffffffffffffffffffffffffffffff167f5445f318f4f5fcfb66592e68e0cc5822aa15664039bd5f0ffde24c5a8142b1ac60405160405180910390a35050505050565b600073ffffffffffffffffffffffffffffffffffffffff82169050919050565b6000610f9c82610f71565b9050919050565b610fac81610f91565b82525050565b6000819050919050565b610fc581610fb2565b82525050565b6000606082019050610fe06000830186610fa3565b610fed6020830185610fbc565b610ffa6040830184610fbc565b949350505050565b6000604051905090565b600080fd5b600080fd5b61101f81610f91565b811461102a57600080fd5b50565b60008135905061103c81611016565b92915050565b6000602082840312156110585761105761100c565b5b60006110668482850161102d565b91505092915050565b60008115159050919050565b6110848161106f565b82525050565b600060208201905061109f600083018461107b565b92915050565b6110ae81610fb2565b81146110b957600080fd5b50565b6000813590506110cb816110a5565b92915050565b6000602082840312156110e7576110e661100c565b5b60006110f5848285016110bc565b91505092915050565b600081519050919050565b600082825260208201905092915050565b60005b8381101561113857808201518184015260208101905061111d565b60008484015250505050565b6000601f19601f8301169050919050565b6000611160826110fe565b61116a8185611109565b935061117a81856020860161111a565b61118381611144565b840191505092915050565b600060a0820190506111a36000830188610fa3565b6111b06020830187610fbc565b81810360408301526111c28186611155565b90506111d1606083018561107b565b6111de6080830184610fbc565b9695505050505050565b600080604083850312156111ff576111fe61100c565b5b600061120d858286016110bc565b925050602061121e8582860161102d565b9150509250929050565b600060208201905061123d6000830184610fbc565b92915050565b600081519050919050565b600082825260208201905092915050565b6000819050602082019050919050565b61127881610f91565b82525050565b600061128a838361126f565b60208301905092915050565b6000602082019050919050565b60006112ae82611243565b6112b8818561124e565b93506112c38361125f565b8060005b838110156112f45781516112db888261127e565b97506112e683611296565b9250506001810190506112c7565b5085935050505092915050565b6000602082019050818103600083015261131b81846112a3565b905092915050565b600080fd5b600080fd5b7f4e487b7100000000000000000000000000000000000000000000000000000000600052604160045260246000fd5b61136582611144565b810181811067ffffffffffffffff821117156113845761138361132d565b5b80604052505050565b6000611397611002565b90506113a3828261135c565b919050565b600067ffffffffffffffff8211156113c3576113c261132d565b5b6113cc82611144565b9050602081019050919050565b82818337600083830152505050565b60006113fb6113f6846113a8565b61138d565b90508281526020810184848401111561141757611416611328565b5b6114228482856113d9565b509392505050565b600082601f83011261143f5761143e611323565b5b813561144f8482602086016113e8565b91505092915050565b6000806000606084860312156114715761147061100c565b5b600061147f8682870161102d565b9350506020611490868287016110bc565b925050604084013567ffffffffffffffff8111156114b1576114b0611011565b5b6114bd8682870161142a565b9150509250925092565b7f4e487b7100000000000000000000000000000000000000000000000000000000600052603260045260246000fd5b7f4e487b7100000000000000000000000000000000000000000000000000000000600052602260045260246000fd5b6000600282049050600182168061153d57607f821691505b6020821081036115505761154f6114f6565b5b50919050565b600082825260208201905092915050565b7f4f6e6c79206f776e657220616c6c6f7765640000000000000000000000000000600082015250565b600061159d601283611556565b91506115a882611567565b602082019050919050565b600060208201905081810360008301526115cc81611590565b9050919050565b7f5472616e73616374696f6e20646f6573206e6f74206578697374000000000000600082015250565b6000611609601a83611556565b9150611614826115d3565b602082019050919050565b60006020820190508181036000830152611638816115fc565b9050919050565b7f7472616e73616374696f6e20616c726561647920657865637574656400000000600082015250565b6000611675601c83611556565b91506116808261163f565b602082019050919050565b600060208201905081810360008301526116a481611668565b9050919050565b7f7472616e73616374696f6e20616c726561647920636f6e6669726d6564000000600082015250565b60006116e1601d83611556565b91506116ec826116ab565b602082019050919050565b60006020820190508181036000830152611710816116d4565b9050919050565b7f4e487b7100000000000000000000000000000000000000000000000000000000600052601160045260246000fd5b600061175182610fb2565b915061175c83610fb2565b925082820190508082111561177457611773611717565b5b92915050565b60008190508160005260206000209050919050565b60006020601f8301049050919050565b600082821b905092915050565b6000600883026117dc7fffffffffffffffffffffffffffffffffffffffffffffffffffffffffffffffff8261179f565b6117e6868361179f565b95508019841693508086168417925050509392505050565b6000819050919050565b600061182361181e61181984610fb2565b6117fe565b610fb2565b9050919050565b6000819050919050565b61183d83611808565b6118516118498261182a565b8484546117ac565b825550505050565b600090565b611866611859565b611871818484611834565b505050565b5b818110156118955761188a60008261185e565b600181019050611877565b5050565b601f8211156118da576118ab8161177a565b6118b48461178f565b810160208510156118c3578190505b6118d76118cf8561178f565b830182611876565b50505b505050565b600082821c905092915050565b60006118fd600019846008026118df565b1980831691505092915050565b600061191683836118ec565b9150826002028217905092915050565b61192f826110fe565b67ffffffffffffffff8111156119485761194761132d565b5b6119528254611525565b61195d828285611899565b600060209050601f831160018114611990576000841561197e578287015190505b611988858261190a565b8655506119f0565b601f19841661199e8661177a565b60005b828110156119c6578489015182556001820191506020850194506020810190506119a1565b868310156119e357848901516119df601f8916826118ec565b8355505b6001600288020188555050505b505050505050565b6000604082019050611a0d6000830185610fbc565b8181036020830152611a1f8184611155565b90509392505050565b7f5472616e73616374696f6e206e6f7420636f6e6669726d617465640000000000600082015250565b6000611a5e601b83611556565b9150611a6982611a28565b602082019050919050565b60006020820190508181036000830152611a8d81611a51565b9050919050565b6000611a9f82610fb2565b9150611aaa83610fb2565b9250828203905081811115611ac257611ac1611717565b5b92915050565b7f63616e6e6f7420657865637574652074686973207472616e73616374696f6e00600082015250565b6000611afe601f83611556565b9150611b0982611ac8565b602082019050919050565b60006020820190508181036000830152611b2d81611af1565b9050919050565b600081905092915050565b60008154611b4c81611525565b611b568186611b34565b94506001821660008114611b715760018114611b8657611bb9565b60ff1983168652811515820286019350611bb9565b611b8f8561177a565b60005b83811015611bb157815481890152600182019150602081019050611b92565b838801955050505b50505092915050565b6000611bce8284611b3f565b915081905092915050565b7f5472616e73616374696f6e2066616c6965640000000000000000000000000000600082015250565b6000611c0f601283611556565b9150611c1a82611bd9565b602082019050919050565b60006020820190508181036000830152611c3e81611c02565b905091905056fea26469706673582212207eb759cb2931fbfc982e1f0649c34d08b3ba98be5d10b333faeb4a13422e59a064736f6c63430008110033",
  "linkReferences": {},
  "deployedLinkReferences": {}
}